:020000040000fa
:080000000002040000000000f2
:020000040000fa
:10000800b0020000b0020000b0020000b002000020
:10001800b0020000b0020000b0020000b002000010
:10002800b0020000b0020000b0020000344e000030
:10003800b0020000b0020000b0020000b0020000f0
:10004800b0020000b0020000b0020000b0020000e0
:10005800b0020000b0020000b0020000b0020000d0
:10006800b0020000b0020000b0020000b0020000c0
:10007800b0020000b0020000b0020000b0020000b0
:10008800b0020000b0020000b0020000b0020000a0
:10009800b0020000b0020000b0020000b002000090
:1000a800b0020000b0020000b0020000b002000080
:1000b800b0020000b0020000b0020000b002000070
:1000c800b0020000b0020000b0020000b002000060
:1000d800b0020000b0020000b0020000b002000050
:1000e800b0020000b0020000b0020000b002000040
:1000f800b0020000b0020000b0020000b002000030
:10010800b0020000b0020000b0020000b00200001f
:10011800b0020000b0020000b0020000b00200000f
:10012800b0020000b0020000b0020000b0020000ff
:10013800b0020000b0020000b0020000b0020000ef
:10014800b0020000b0020000b0020000b0020000df
:10015800b0020000b0020000b0020000b0020000cf
:10016800b0020000b0020000b0020000b0020000bf
:10017800b0020000b0020000c44e0000b00200004f
:10018800b0020000b0020000b0020000b00200009f
:10019800b0020000b0020000b0020000b00200008f
:1001a800b0020000b0020000b0020000b00200007f
:1001b800b0020000b0020000b0020000b00200006f
:1001c800b0020000b0020000b0020000b00200005f
:1001d800b0020000b0020000b0020000b00200004f
:1001e800b0020000b0020000b0020000b00200003f
:0801f800b0020000b00200009b
:020000040000fa
:10020800b0020000b0020000b0020000b00200001e
:10021800b0020000b0020000b0020000b00200000e
:10022800b0020000b0020000b0020000344e00002e
:10023800b0020000b0020000b0020000b0020000ee
:10024800b0020000b0020000b0020000b0020000de
:10025800b0020000b0020000b0020000b0020000ce
:10026800b0020000b0020000b0020000b0020000be
:10027800b0020000b0020000b0020000b0020000ae
:10028800b0020000b0020000b0020000b00200009e
:10029800b0020000b0020000b0020000b00200008e
:1002a800b0020000b0020000b0020000b00200007e
:1002b800b0020000b0020000b0020000b00200006e
:1002c800b0020000b0020000b0020000b00200005e
:1002d800b0020000b0020000b0020000b00200004e
:1002e800b0020000b0020000b0020000b00200003e
:1002f800b0020000b0020000b0020000b00200002e
:10030800b0020000b0020000b0020000b00200001d
:10031800b0020000b0020000b0020000b00200000d
:10032800b0020000b0020000b0020000b0020000fd
:10033800b0020000b0020000b0020000b0020000ed
:10034800b0020000b0020000b0020000b0020000dd
:10035800b0020000b0020000b0020000b0020000cd
:10036800b0020000b0020000b0020000b0020000bd
:10037800b0020000b0020000c44e0000b00200004d
:10038800b0020000b0020000b0020000b00200009d
:10039800b0020000b0020000b0020000b00200008d
:1003a800b0020000b0020000b0020000b00200007d
:1003b800b0020000b0020000b0020000b00200006d
:1003c800b0020000b0020000b0020000b00200005d
:1003d800b0020000b0020000b0020000b00200004d
:1003e800b0020000b0020000b0020000b00200003d
:0803f800b0020000b002000099
:020000040000fa
:100400000fe220000e7f22000e0188000000000095
:1004100000012000200288000c00070080b52400a5
:100420000100200011000700000020000000e00093
:10043000020032000000020000000000464e0200f0
:10044000000000000040da000000fe004440a90067
:10045000801920000000e0000300320000002000ae
:10046000a00188004440a800000006009101880017
:10047000800078000000eb0015003700e2804000ab
:1004800032a0b4009101ba00e280400032a0b40072
:100490009102ba00e280400032a0b4000002eb00fa
:1004a000472bde00f507b200602ce10004003a00a3
:1004b0000059eb008301e900fdff3e000400370016
:1004c0006128e100010032000082eb000400070017
:1004d0001101ba000200e000e8ff3a000000060047
:1004e0003159ba008301e9000c0032002159ba00e9
:1004f0008301e900080032000400e00003003a0034
:10050000e280400032a0b400f5ff370011d9ba00f4
:100510008301e900faff3a008100e800e180400031
:1005200032a0b4000000060000000000000000003f
:1005300000000000000000000000000000000000bb
:1005400000000000000000000000000000000000ab
:10055000000000000000000000000000000000009b
:100560000040da000000fe000002780002003700c0
:10057000015a78000201e900e00f5100fcff3a0047
:1005800000000600000278008042eb00b4cf1200a9
:10059000fdff3a000080ea00000042000000060073
:1005a0000c00fa00889fbe0000047800f4ff2700ca
:1005b000d4bf9f008004eb0099bf9f0088bf9f00bd
:1005c000a8bf9f00240c2000b4bf9f00708057007c
:1005d000c40007000fba9700094a78000fba9700c5
:1005e000080052004f04be000080fa000000060020
:1005f0000800fa00889fbe008a9fbe000084fb00ae
:10060000d4c6b300844f5000340036004b0620009f
:10061000110009000b84d8008105780072004000a9
:100620004300dd0009cd2000008044006022b800b6
:100630000600200007fe23005001be004000be005f
:10064000b30a07000002be000203be0084bf9f0081
:1006500095bf9f00a6bf9f00b7bf9f00aa002000c4
:10066000110009008a85d80080057800e9854500d9
:10067000c35ddd008b8544003b02be002b03be0042
:100680000fb897009fb897002fb99700bfb9970090
:100690009f0a07000002be000203be0084bf9f0045
:1006a00095bf9f00a6bf9f00b7bf9f001100090024
:1006b0000a84d800010478004344dd0088844400a3
:1006c0003902be002903be000fb897009fb89700fb
:1006d0002fb99700bfb997001d003700ea4f5000af
:1006e00013003600aa002000110009000a84d80077
:1006f00001057800690440004344dd0009cd200075
:10070000088444006022b8000600200007fe230091
:100710003800be002801be007d0a07004355dd00f9
:100720008a8444003902be002903be000800370055
:100730004344dd0004cd2000080442006022b800dc
:100740000600200007fe23003800be002801be007e
:100750006f0a07004f05be004f04be000080fa007c
:10076000000006000800fa00889fbe008a9fbe00b5
:10077000d4c6b300e04f500022003d000040ea0024
:100780000004fb00844f50000a003400440620009f
:10079000110009000404d800a9002000110009007c
:1007a0008900d800e9004000c308dd000acd200020
:1007b00020003700ea4f50000f003400a400200052
:1007c000110009000404d800690040004300dd0066
:1007d00004cd200000004200430cdd00080242006e
:1007e0005403be004402be005001be004000be00e3
:1007f000470a0700370037004344dd0004cd2000de
:10080000310037000004fb00844f50002300340007
:1008100044062000110009000404d800a9002000ab
:10082000110009008900d800e9004000c308dd007c
:100830000ac22000810045003102be002103be0033
:100840008b0920008a8545003b00be002b01be00bd
:100850002f0a07000002be000203be0084bf9f00f3
:1008600095bf9f00a6bf9f00b7bf9f001100090062
:100870000904d800010478004344dd000805450060
:100880003a02be002a03be000fb897009fb8970037
:100890002fb99700bfb99700d5ff3700ea4f500036
:1008a00007003400a4002000110009000404d8004f
:1008b000690040004300dd0004c22000c5ff37008e
:1008c0004344dd0004c22000080442003800be009a
:1008d0002801be004f05be004f04be000080fa0094
:1008e000000006002f06b000889fbe008a9fbe0051
:1008f0008c9fbe008e1f7800b0af9f00d1979f00e5
:10090000a2af9f006000b8006011b800a0a79f00d0
:10091000b1a79f00c2a79f00d3a79f000006eb00ce
:1009200037073700df9097008100e800d1979f00dc
:1009300054c2b300844f500007003a00010278000f
:100940000003eb00d0c2b30001c3b30002c2b30086
:1009500033c2b300070037000000fb00bfa89700b8
:1009600033070700e10f4000250732000c06e800be
:100970002307370084037800b4427800b8c2b3007c
:1009800088cf52000f00320005003c0082cf520099
:100990000a00320083cf520010003a000b003700eb
:1009a00080cf52000300320081cf52000b003a008a
:1009b000080037000630a000eeff37000600a00058
:1009c000ecff37000610a000eaff370006b0a000d9
:1009d000e8ff37000620a000e6ff37006202630050
:1009e000010032000600a10068026300010032002d
:1009f0000620a1000502fb000403b100e90f52002c
:100a00000d003e0087027800000020006a00b90057
:100a10003502fb000403b1000000420085037800aa
:100a20001502fb000403b100e90f5200f7ff360086
:100a3000c0af9f000a0037000005eb00caaf9f005f
:100a4000a4c2b30084cf520005003a00afad9700b6
:100a50004b007800abaf9f00c0af9f008703e8005a
:100a6000e4c2b300974f120019003a0086067800de
:100a70000de0a00064425200d74f12000300320084
:100a8000070378000007eb000b003700afa89700c2
:100a900041077800a1af9f008703e80007007800b6
:100aa00076c6b30007c7b300c1c6b3000c00370059
:100ab0006a70b90000074200860378003602fb0026
:100ac0000403b100e90f5200f9ff3600f3ff3700cd
:100ad000860678000dc0a0000007eb00efff37008e
:100ae000b0427800d0979f0086cf5200300032008d
:100af00017003c0034c6b30084cf5200900032008f
:100b00000e003c007c42520084cf52003b00320079
:100b100006003c00e0cf5200be06320004c2e900ed
:100b200084cf5200a5003a003000370084c5b300de
:100b300084cf5200a1003a003700370054c6b300fa
:100b400084cf52001c00320025003c001c003700fe
:100b500087cf52003000320009003c0081cf5200a4
:100b600019003200f4c6b30084cf520027003200cf
:100b70006642520084cf520090003a0010003700c5
:100b800054c7b30084cf5200930032006342420046
:100b900084cf5200040032006542520084cf5200dc
:100ba00086003a0020003700a5579f001c00370040
:100bb000a6579f0013003700a5579f000d00370070
:100bc000a5579f0086003700f082660004012000d0
:100bd000010032000400280084867600c0ff370040
:100be000a5579f000da0a0007d003700a5579f00ce
:100bf0000d50a0000d80a00079003700a5579f0080
:100c00000d50a0000d90a00075003700a5579f0063
:100c10000d60a00072003700a5579f000d50a00086
:100c20000d70a0006e003700a5579f00afa9970078
:100c300043027800a3af9f00d4af9f00e00f5200a3
:100c400002003a0006bb2000d6af9f005fab9700c2
:100c50008002eb00010037008502e80066c27a00de
:100c6000e04f5200fcff3a00e5af9f00e00f570055
:100c700005003200efab9700870f570002003100ec
:100c80000e047800e8af9f006faa97000004eb0005
:100c9000cfac9700848f54000100360004845400c8
:100ca000e886660014003a0007003700bfa89700e6
:100cb000000220005e060700e10f40000100320044
:100cc0000c06e8000804e900e00f5400f7ff3a00c2
:100cd0000084eb00080037005faa97003400fb0097
:100ce000d4af9f00bfa8970051060700e10f400056
:100cf000010032000c06e8006faa97000405e90025
:100d0000eaaf9f00e00f5200f3ff3a00e08f560079
:100d10003b06320007003700bfa897000002200002
:100d200043060700e10f4000010032000c06e80016
:100d30000804e900e00f5400f7ff3a0030063700de
:100d4000afad97004b027800abaf9f000404780072
:100d5000cfc4de00090578008a0578000800be00cf
:100d60000a01be004800de00480add0000007200f3
:100d7000a0579f007082660009003200e04f5000cb
:100d800007003200e14f400005003200b0579f00dd
:100d9000c8579f0025002000e5af9f0003003700e3
:100da000b8579f0016002000e6af9f0037f92f00cc
:100db00087834700d7af9f00acff3700a5579f0040
:100dc00028f92f0008844700d8af9f0019002000a1
:100dd000e9af9f00a5ff3700a5579f000d0cb3009a
:100de00004702000048266004104320004002100e7
:100df00004826600010032006e00200070826600ee
:100e0000050032002fa897004005be004004be0038
:100e1000a0af9f00060037002fa997004200be0038
:100e2000a2af9f00e50707000004be000205be0058
:100e30006022b8006033b8000800be000a01be009e
:100e400030070700e00f500002003d000bf0a20049
:100e50003d00b3000002eb00b48f9f006022b80099
:100e60006033b8000800be000a01be008907070011
:100e7000e00f5000340032000800be000a01be003e
:100e80001a09070062f92f000f0141006e080700e0
:100e90003f8897000000e9006300b900a40020002b
:100ea000110009000400d800b08f9f00e00f50002f
:100eb00002003d000000e900b08f9f00bf8997004d
:100ec000d3af9f000340ea0026fe07000802be00e1
:100ed0000a03be008e0807000002be000203be0027
:100ee000a4a79f00b5a79f00c6a79f00d7a79f00f4
:100ef0006022b8000600200007ff2300010707005a
:100f0000e00f500003003d00dfaa97000502e90052
:100f10000c0037006022b8000600200047022400c1
:100f20002fa09700bfa097004fa19700dfa19700c7
:100f3000f9060700e00f5000030035005fab970093
:100f40000602e800b48f9f00bf8b9700d7af9f00c9
:100f50000d0278000410b20008003a000d0278007b
:100f60000420b2006202320007007800e40f400063
:100f7000020035008e0f5000ef013500e00f5700e2
:100f8000040032000d0278000420b200010032009b
:100f90000e07e900f20f57000300360024c1b3002a
:100fa000a4579f0001003700ae579f006022b80091
:100fb0006033b8000800be000a01be003507070014
:100fc000e00f5000660032002f519700c2cf9f0003
:100fd000afd9970002c05100e2fd07000002be0039
:100fe0000203be000800be000a01be00cf060700d3
:100ff0000004be000205be00c0070700100807007d
:101000000002be000203be000800be000a01be00ce
:10101000b40807006022b8000600200007fe230085
:10102000bd060700e00f5000080035006022b80040
:101030000600200007fe23000800be000a01be00d3
:10104000330607000004be000205be000800be0013
:101050000a01be00a9070700e09f9f00f19f9f00c3
:101060008002eb0085a79f000003eb0096a79f007e
:10107000cfcb97008703fb00c78f9f000702e800d4
:101080004322dd0001d82000048040003002be0071
:101090002003be00e4a79f00f5a79f0086af9f0036
:1010a00097af9f006f989700ff9897000fa1970048
:1010b0009fa197000400e1000588e1000690e1008f
:1010c0000798e1000c0039000400200005002a0008
:1010d0009699290097fb23000800be000a01be0074
:1010e0000b0807000004be000205be00dfa8970041
:1010f0000102e800190037004f8997004312dd0014
:1011000003d82000048241005403be004402be0004
:101110006f989700ff9897000fa197009fa19700e5
:101120000400e1000588e1000690e1000798e10075
:101130000b0031006022b8000600200047022400a6
:101140000800be000a01be00f10707000004be004f
:101150000205be00dfa897000102e900b48f9f00de
:1011600004a020008482660004202000848f5200a6
:1011700046003a00f40f5700010034004e012000f1
:101180000800be000a01be005c070700e0979f0050
:10119000f1979f008001eb00839f9f000002eb000e
:1011a000949f9f000800be000a01be00d0af9f00c0
:1011b000e1af9f00f2af9f0083b79f006f9497004d
:1011c000ff9497000f9d97009f9d9700090037009f
:1011d0000e07e900a4002000050020006033b800dd
:1011e0000800be000a01be00160907000205be0085
:1011f0000004be00e00f5400e08f5c00e00f5d00d3
:10120000e08f5d000b003200a400200005002000ec
:101210006033b8000800be000a01be0010090700d4
:10122000e00f5000e08f5800e00f5900e08f5900a8
:10123000e7ff3200e8979f00f9979f008a9f9f0081
:101240009b9f9f005fac9700efac97007fad97002e
:101250008fb597002f5097000002fb00840f5700b6
:101260000a003d000e4050003efd07000002be0097
:101270000203be000800be000a01be002b060700e4
:101280000004be000205be00ae579f00cfab970022
:10129000658253000e025200c4af9f00e00f57005a
:1012a00003003a000480200004826600030032003c
:1012b0004fa897000000e900c0af9f00638266005e
:1012c00003003200cfa897008100e900c1af9f0062
:1012d000648266002c003200e28266006182660051
:1012e000e08f520006003200b0022000e00f5200f2
:1012f000010032000080e800bfa89700040037001a
:10130000e00f520017003200bfa897000002200033
:10131000c7040700e10f4000120032000c06e8008d
:1013200010003700bfa897000003200094b79f006b
:10133000a5b79f00b6b79f00c7b79f00bc040700c2
:101340001fb29700afb297003fb39700cfb397009b
:10135000e10f4000010032000c06e8008904e900ba
:10136000030037000802be000a03be00cfac97009e
:10137000e08f5400ebff3c00c9af9f000404be00a7
:101380000605be002c0037006882660018003a008f
:101390000802be000a03be00cfac97000f00370062
:1013a000bfa897000002200094b79f00a5b79f0038
:1013b000b6b79f00c7b79f009d0407001fb29700f4
:1013c000afb297003fb39700cfb39700e10f400053
:1013d000010032000c06e8008904e900e08f5400a7
:1013e000efff3c00c9af9f000404be000605be002d
:1013f000e282660061826600e08f520006003200e1
:10140000b0022000e00f5200010032000080e8002e
:10141000bfa8970004003700e00f5200060032001a
:10142000bfa897000002200081040700e10f4000e0
:10143000010032000c06e8000800be000a01be00f0
:10144000ae060700a09f9f00b19f9f008001eb00a8
:10145000c39f9f000002eb00d49f9f00af529700f4
:101460008502fb00e5a79f0005037800c332dd007d
:1014700004d82000050242003404be002405be004a
:101480000802be000a03be002f989700bf9897007d
:101490004f999700df9997006a0807000003b00092
:1014a000bfa8970062040700e10f4000010032006e
:1014b0000c06e8000802be000a03be002f98970041
:1014c000bf9897004f999700df999700640807002d
:1014d000d0af9f00e1af9f00f2af9f0083b79f00a6
:1014e000e00f570003003a000480200004826600e9
:1014f00054003200bfa89700e00220004c0407000f
:10150000e10f4000330032000c06e80031003700e4
:101510004f889700e00f50000d003200e00f54009c
:10152000e08f5c00e00f5d00e08f5d0008003a0096
:10153000d8af9f00e9af9f00faaf9f008bb79f0025
:101540008042eb00a5579f000004eb003b003700f2
:101550008502fb00c32add0006d820008502430077
:101560003500be002501be00d0af9f00e1af9f0057
:10157000f2af9f0083b79f000203be000002be00cf
:101580000800be000a01be002e0807000403200068
:1015900000024200bfa8970004007800240407005e
:1015a000e10f4000010032000c06e8005faa97003e
:1015b000efaa97007fab97008fb397000800be009b
:1015c0000a01be00260807000205be000004be0096
:1015d000070037008d0078000120b200c18f9f0006
:1015e0005fac9700efac97007fad97008fb5970089
:1015f0002f5297008442e900a5579f00e04f520008
:10160000c3ff3a00d8af9f00e9af9f00faaf9f0039
:101610008bb79f00efa29700050457000700370023
:10162000bfa897000003200001040700e10f40005d
:10163000010032000c06e8000804e900e00f540045
:10164000f7ff3a000d0278000402b20003003200f6
:10165000bfa897005004200002003700bfa89700e1
:1016600050062000f2030700e10f400001003200a5
:101670000c06e8003f8a9700e00f520005003d008d
:101680000402ea00b48f9f00bfa89700d002200098
:1016900002003700bfa89700b0022000e403070053
:1016a000e10f4000010032000c06e8003f8c97007b
:1016b000a4002000110009000404d8000003b000b9
:1016c000bfa89700da030700e10f400001003200d5
:1016d0000c06e800a4002000110009000404d80052
:1016e0000003200001004000bfa89700d0030700be
:1016f000e10f4000010032000c06e800688266003d
:10170000bf0332004fab9700e00f5300bc0334001f
:1017100006047800bfa8970000022000c403070059
:10172000e10f4000010032000c06e8000804e90067
:10173000f8ff3a00b2033700dfab9700e08f5300a9
:1017400002003d000782ea00040747000800be00cf
:101750000a01be00b8050700d0af9f00e1af9f00af
:10176000f2af9f0083b79f0001d820000040eb003c
:101770000802be000a03be00e4a79f00f5a79f0071
:1017800086af9f0097af9f000c0037003102be006c
:101790003103be005fac9700efac97007fad9700c0
:1017a0008fb597000440e10005c8e10006d0e100d4
:1017b00007d8e100030039000040e800f44f500072
:1017c000f2ff3a006fa49700ffa497000fad9700b7
:1017d0009fad97000002fb0004075700f80f570069
:1017e00009003c000e40780081fb07000002be00ab
:1017f0000203be000800be000a01be004404070048
:101800000004be000205be000e407800d5fb0700b4
:101810000002be000203be00e4a79f00f5a79f00e0
:1018200086af9f0097af9f005fa89700efa8970033
:101830007fa997008fb19700d60507000002be0070
:101840000203be000800be000a01be00a506070094
:101850000002be000203be006fa09700ffa0970029
:101860000fa997009fa99700290607007205070096
:101870000802be000a03be00d4af9f00e5af9f0080
:10188000f6af9f0087b79f000205be000004be00b0
:1018900009003700a4002000050020006033b800d4
:1018a0000800be000a01be00660707000205be0070
:1018b0000004be000e07e900e00f570018003200d8
:1018c000a4002000050020006033b8000800be001e
:1018d0000a01be0062070700e00f5000e08f5800c9
:1018e000e00f5900e08f5900eaff32000c0037008a
:1018f000f80f57000e003c000e4078003cfb07003c
:101900000002be000203be000800be000a01be00c5
:10191000ff0307000004be000205be0004003700fc
:101920005fac9700efac97007fad97008fb5970045
:10193000bf8a9700d5af9f00e98f520012003c008c
:101940006022b8006033b8000800be000a01be0083
:10195000d0040700e00f50002f0032000800be0046
:101960000a01be0034050700e00f5000e08f580068
:10197000e00f5900e08f590027003a005fab970055
:10198000e10f5300240034000400200005002e0065
:10199000b6e02200170124002fa09700bfa09700f7
:1019a0004fa19700dfa1970056040700e00f5000f9
:1019b00003003d00dfab9700738253000200370045
:1019c0005fa8970072025000b48f9f006f5097007d
:1019d00064fb07000002be000203be00a4a79f0034
:1019e000b5a79f00c6a79f00d7a79f000800be000d
:1019f0000a01be004d0407000f050700d0af9f008d
:101a0000e1af9f00f2af9f0083b79f006044b80032
:101a10006055b800110037000800be000a01be0082
:101a200005050700d0af9f00e1af9f00f2af9f0018
:101a300083b79f00570507000002be000203be00e7
:101a40000800be000a01be00260607000004be0012
:101a50000205be000002eb00b48f9f0081d8200079
:101a600010c0b3000802be000a03be00d4b79f0036
:101a7000e5b79f00f6b79f0087bf9f0010003700b3
:101a80003104be003105be00e8a79f00f9a79f0002
:101a90008aaf9f009baf9f005faa9700efaa9700b5
:101aa0007fab97008fb397000820e10009a8e10001
:101ab0000ab0e1000bb8e100030039000040e80083
:101ac000f44f5000eeff3a005fb49700efb4970078
:101ad0007fb597008fbd9700a0579f003f8a970062
:101ae000cfaa9700048252008e0252000002fb002f
:101af00004825200c4af9f0004802000048266006c
:101b0000e4a79f0002003a00e00f570003003200f4
:101b10004fab97000603e900c6af9f0063826600e3
:101b200003003200cfab97008703e900c7af9f00e7
:101b3000648266002c003200e282660061826600e8
:101b4000e08f520006003200b0022000e00f520089
:101b5000010032000080e800bfa8970004003700b1
:101b6000e00f520017003200bfa8970000022000cb
:101b7000af020700e10f4000120032000c06e8003f
:101b800010003700bfa897000003200094b79f0003
:101b9000a5b79f00b6b79f00c7b79f00a402070074
:101ba0001fb29700afb297003fb39700cfb3970033
:101bb000e10f4000010032000c06e8008904e90052
:101bc000030037000802be000a03be00cfac970036
:101bd000e08f5400ebff3c00c9af9f000404be003f
:101be0000605be00400037006882660018003a0013
:101bf0000802be000a03be00cfac97000f003700fa
:101c0000bfa897000002200094b79f00a5b79f00cf
:101c1000b6b79f00c7b79f00850207001fb29700a5
:101c2000afb297003fb39700cfb39700e10f4000ea
:101c3000010032000c06e8008904e900e08f54003e
:101c4000efff3c00c9af9f000404be000605be00c4
:101c5000e282660061826600e08f52000600320078
:101c6000b0022000e00f5200010032000080e800c6
:101c7000bfa8970018003700e00f52001a0032008a
:101c8000bfa8970000022000130037008502fb0068
:101c9000c32add0000d82000850240005503be00a5
:101ca0004502be005fa89700efa897007fa99700a4
:101cb0008fb1970063060700a400200005002000f4
:101cc0006033b800660607000403200000024200eb
:101cd000bfa897000400780055020700e10f4000fc
:101ce000010032000c06e8002f5297008442e90000
:101cf000a5579f00e04f5200e4ff3a000802be00e3
:101d00000a03be0010003700bfa8970000032000a0
:101d100094b79f00a5b79f00b6b79f00c7b79f00b5
:101d2000430207001fb29700afb297003fb397007e
:101d3000cfb39700e10f4000010032000c06e8002d
:101d40008904e900b98f9f00bf8c9700e08f540091
:101d5000edff3c000404be000605be00f20f570074
:101d60000300340024c1b300a4579f0001003700d2
:101d7000ae579f00af5297000502fb0004075700c3
:101d8000e0cf520003003a006fa19700e00f51002e
:101d900006003200bfa89700e002200024020700de
:101da000e10f4000010032000c06e8002f509700c0
:101db0006cfa07000002be000203be000800be006d
:101dc0000a01be00d20407001b0407000205be0082
:101dd0000004be00240037008502fb00c32add009a
:101de00006d82000850243003500be002501be0054
:101df000d0af9f00e1af9f00f2af9f0083b79f007d
:101e00000203be000002be000800be000a01be00c0
:101e10000c060700a4002000050020006033b80075
:101e20000f0607000403200000024200bfa897002d
:101e300004007800fe010700e10f400001003200bd
:101e40000c06e8005faa9700efaa97007fab970007
:101e50008fb397000800be000a01be00000607000d
:101e60000205be000004be002f5297008442e90024
:101e7000a5579f00e04f5200d7ff3a00d8af9f0010
:101e8000e9af9f00faaf9f008bb79f0007003700b4
:101e9000bfa8970000032000e5010700e10f400004
:101ea000010032000c06e8000e07e900e00f5700c1
:101eb000f7ff3a0068826600d1013200cfaa97008e
:101ec000e08f5200ce01340005047800bfa89700cf
:101ed00000022000d6010700e10f4000010032009f
:101ee0000c06e8000804e900f8ff3a00c4013700d6
:101ef0008d027800050cb2003c003a00e08f5600dd
:101f000005003d002fa897004005be004004be001c
:101f1000a0af9f00100037007082660013003200ef
:101f20002faa97004401be00a4af9f0092979f0084
:101f3000a3979f0084027800150290004fa2de0054
:101f4000b4979f00c4979f001f949700af94970089
:101f50003f959700cf959700d8af9f00e9af9f00be
:101f6000faaf9f008bb79f000b003700afac970014
:101f700049027800a9af9f0004007800cf80de00fe
:101f80000101780082017800d0af9f00e1af9f008f
:101f9000f2af9f0083b79f005faa9700efaa970058
:101fa0007fab97008fb39700e00f5200e08f5a008d
:101fb000e00f5b00e08f5b0030003d003d00b300b0
:101fc0006022b8006033b8005fac9700efac9700b8
:101fd0007fad97008fb597000804520089845a009e
:101fe0000a055b008b855b0020003700e08f560000
:101ff00005003d002faa97004401be004400be002a
:10200000a4af9f000d003700f08266001000320080
:102010002fac97004803be00a8af9f00d68f9f004b
:10202000e78f9f00f48f9f0084979f005f88970041
:10203000ef8897007f8997008f919700d0af9f001e
:10204000e1af9f00f2af9f0083b79f000b00370006
:10205000afa8970041027800a1af9f000404780068
:10206000090020000a0020000b002000d8af9f00cc
:10207000e9af9f00faaf9f008bb79f00e00f5700ba
:102080000b003a001e0020005fa89700efa8970001
:102090007fa997008fb19700e00f5000e08f5800a4
:1020a000e00f5900e08f5900010032000007eb00fb
:1020b0008d047800090cb20004042000848f5400c1
:1020c0003500320003003c00e08f5400070032006e
:1020d0004b00370004082000848f540015003200a4
:1020e000040c2000848f540045003a0081d8200061
:1020f00010c0b300090178003102be003103be00f8
:102100005fac9700efac97007fad97008fb597005d
:102110000440e10005c8e10006d0e10007d8e10075
:10212000350039000040e800f44f5000f2ff3a005b
:102130003100370010c0b30004012000050020006a
:102140006033b800090178005fac9700efac9700ee
:102150007fad97008fb597000440e10005c8e1000e
:1021600006d0e10007d8e100230039004900200033
:102170000402d0008582d2000683d2008783d20079
:102180008904e900faff3a000040e800f04f5000ef
:10219000edff3a001800370010c0b30084002000a3
:1021a000050020006033b800090178005fac97009b
:1021b000efac97007fad97008fb597000440e1002a
:1021c00005c8e10006d0e10007d8e1000a003900a7
:1021d000390020000402d0008582d2000683d2009c
:1021e0008783d2008904e900faff3a000040e80042
:1021f000f54f5000edff3a0082047800a0579f0091
:102200002f5597000a02fb008e0f520002003d007e
:10221000ae579f0003003700840f570001003d00b8
:10222000040778004fa89700e00f50000400320028
:1022300063826600020032000000e900c0af9f0028
:10224000040024000482660008003200cfa8970032
:102250008e8f5000030034008e805000c1af9f006d
:10226000020037000001eb00c2af9f00448c200049
:10227000848266004408b100848f520006003a0050
:10228000cfa99700e08f5100100032008301e900d0
:10229000c3af9f000d003700048c200084826600cd
:1022a0000404b100848f520008003a004faa97003e
:1022b000e20f5200030034000482e900c4af9f0023
:1022c000020037008002eb00c5af9f002f5397003c
:1022d0000602fb000004eb00cfab9700848f530095
:1022e0000100340004845300648266002d00320033
:1022f000e282660061826600e08f520005003200d3
:10230000b0022000e00f5200170032000080e80009
:1023100015003700e00f520003003200bfa89700fd
:102320000002200011003700048c20008482660027
:102330000404b100848f520010003a00bfa8970037
:1023400000032000ba000700e10f40000100320046
:102350000c06e8000d0278000402b200800720009d
:102360000100320080052000bfa89700b0000700e0
:10237000e10f4000010032000c06e800e00f5400bd
:102380008d003200bfa8970000032000a8000700be
:10239000e10f4000010032000c06e8000804e900eb
:1023a000f6ff3700e00f54000a0032006882660032
:1023b00008003a00bfa89700000220009c00070018
:1023c000e10f4000010032000c06e8000804e900bb
:1023d000f8ff3a00e282660061826600e08f5200f8
:1023e00006003200b0022000e00f5200010032006f
:1023f0000080e800bfa8970004003700e00f5200fb
:1024000006003200bfa897000002200088000700e5
:10241000e10f4000010032000c06e800048c2000af
:10242000848266000408b100848f520003003a00e1
:10243000bfa89700000320000f0037000488200089
:10244000848f52005c003a00bfa897000003200070
:1024500077000700e10f4000010032000c06e800a1
:102460000d0278000402b200800720000100320053
:1024700080052000bfa897006d000700e10f400015
:102480004d0032000c06e8004b0037000e07e90053
:102490008a8f54003000320003003c00e08f54006b
:1024a000070032003c00370004082000848f5400ed
:1024b00014003200040c2000848f540036003a00cf
:1024c0004372dd000bd820000b0242005403be0013
:1024d0004402be005fa89700efa897007fa997006d
:1024e0008fb1970057040700a400200005002000ca
:1024f0006033b8005a04070004c3b300044240002c
:1025000024003700f4b92000cfaa9700e08f5200d2
:1025100001003200e4b82000c272dd005fa897001d
:10252000efa897007fa997008fb197008502e90077
:10253000050033008301d1000281d3008180d300e4
:102540000080d300f9ff37006f006000644078001e
:10255000a0579f00100037006372b9005fa8970072
:10256000efa897007fa997008fb1970084057800a6
:102570008b05e900050033008301d1000281d300ff
:102580008180d3000080d300f9ff370067426000ec
:102590000443b000a4579f00af5097000100fb0018
:1025a000bfa8970022000700e10f4000060032009c
:1025b0000c06e800040037000a0420000d01780032
:1025c0000202b200c2af9f00e00f5700afff3a0017
:1025d000688266000a003200e00f540008003400f0
:1025e000bfa897000002200011000700e10f400083
:1025f000010032000c06e8000804e900f8ff3a0088
:10260000df91970013407800a0579f00e04f5000e3
:10261000c4f83a000c0078004f0778004f06be005f
:102620004f05be004f04be002f06b100000006009b
:10263000889fbe000104780038029000e202620028
:102640008084eb003b003200040378000620b200d7
:102650009802900002003a00e08f520035003a00e4
:102660000490a0003404980080047800f90fb200b0
:10267000e08f520002003a00a8029000050c78009a
:10268000ea8f540005003a000408b20003003a0043
:1026900088007800d0002000e5ff070018029000b5
:1026a000d8029000850f52000b0032000402e800af
:1026b0001404980018027800094a7800040ce80015
:1026c00015c0b300e4bd2000054a7800ea8f54002d
:1026d00018003a00050037008800780009407800ab
:1026e00017000700800478001200370038029000bd
:1026f0000410b2000f00320018019000a8009000f2
:10270000480090005200070018029000840f50000b
:1027100004003200380290000403b300340498002f
:102720008084eb000002eb00140498002802900063
:10273000040c7800090078004f04be000000060079
:102740000200fa00889fbe00a0ff9f0001047800ed
:1027500038029000840278000504b20002003200c2
:102760000000fb0035003700e202620005003a007d
:102770000403b30034049800150498000080eb00b3
:102780002e003700d8049000e08f540006003a0075
:1027900012002000e6805700480090002c0007003f
:1027a0001904980023003700a8029000e08f52001f
:1027b00008003a0015be200025049800050c78009a
:1027c0002500200055049800150498000430a0004e
:1027d0003404980018019000a80090004800900070
:1027e0001b000700280290008082eb00150498006f
:1027f000affa9700054a7800040ce8002ffa97001a
:10280000ea4f52000b003a00380290000410b20068
:102810000800320018019000a800900048009000c5
:102820000b0007000002eb0014049800a8029000bf
:10283000050c78002ffa97000400fb004f04be003f
:102840000080fa000000060000c0da000000060068
:102850000a00fa00e20f500022003e00245f8000d0
:10286000e10f52000600320087232000462320009b
:102870002423200005232000e08f530004003a00a9
:10288000872220004622200024222000052220004a
:10289000000028001500600003003a00800b78005b
:1028a00007002800958a730005402000948262008a
:1028b00001003a0014a0a000820278000600370050
:1028c000940378000710b200fdff3200b103fb0053
:1028d000070b78008502e900e08f5200f8ff3a000c
:1028e0000800370034002000b4bf9f00c0bf9f0025
:1028f000d1bf9f00e2bf9f006a805700d2ff070050
:102900006fb99700020078000080fa00000006000e
:102910002800fa00889fbe008a9fbe008c9fbe00e0
:1029200007067800878669000c003b0003047800e6
:102930008704780008f0a10009f0a100840f50007e
:10294000858f5800860f5900890f5c000300330003
:102950000cf0a20001003a000cf0a100fe000700fc
:102960006400e1005f003200780147006408e10084
:10297000610032006c014700748557003200be00d0
:102980001201be003a04be001a05be001e039000ec
:10299000be0a90008503530006003d000004fd00c0
:1029a0008104fd000205fd008305fd008703ea00a8
:1029b000050378000df8a300040032006004140041
:1029c000e0841c0060051d00e0851d006022b80049
:1029d0007d0320000d38e1008006eb000b0039007c
:1029e0004433dd00f300b200830173003900370087
:1029f000848272000d027800e10664008b85d100ac
:102a00000a85d3008984d3000884d3008703e900b2
:102a1000f7ff3b0008004000898048000a01490098
:102a20008b81490004003b0060001000e08018002a
:102a300060011900e08119000358a3000900320069
:102a40008d82720084827200610260008301d10075
:102a50000281d3008180d3000080d3000603e80008
:102a60001b0037000348a30017003a000600e000ef
:102a7000170034000603e9000d00a3000000480021
:102a80008180480002014900838149000348a30076
:102a90000f003a000600e000090034000603e900d8
:102aa0000000400081804800020149008381490004
:102ab00001003a000003eb000348a300f5ff3200d9
:102ac0006022b800020037008482720061826600d2
:102ad0007500070003f0a1000cf0a70003f0a000b0
:102ae000b1003700640147006408e10002003a00c9
:102af0000df8a300a9003a003200be001201be008a
:102b0000a90037008f1fd100370307008f87e90026
:102b10000000e00000000600809feb003203070089
:102b20008f87e9000000e000000006002800fa009e
:102b3000889fbe008a9fbe008c9fbe0003866b00ec
:102b4000850007006400e100440032006408e100f1
:102b50004a0032006100e100460032006108e100f5
:102b600049003200ec0647006000b8003d02be009c
:102b70003d03be00f48657006011b8003d04be005e
:102b80003d05be007d0320000b0037000000a000c3
:102b90008d06e900130032000402420085824a00db
:102ba00006034b0087834b000000400081804800f3
:102bb00002014900838149000802520089825a00bb
:102bc0000a035b008b835b00f0ff3b0008024200be
:102bd00089824a000a034b008b834b008d06e90073
:102be000edff3a008482720086827200f707b2001d
:102bf0008782720001003200150020001e04900040
:102c00003e0b900006035400e63fb0000368a300ab
:102c1000070032000000a7000500a0008301d100da
:102c20000281d3008180d3000080d3000603e80036
:102c30008301d1000281d3008180d3000080d300c2
:102c40000002eb000482d2001700070003f0a1008d
:102c50000cf0a70003f0a000530037006402470007
:102c60006408e1004d0032003400be003401be00b3
:102c7000f6ff37006108e100480032006011b8003b
:102c80006000b800f1ff370003ff270002002000ba
:102c9000fbff3700801feb00d30207008f87e9009e
:102ca0000000e0000000060018002000570020008f
:102cb000080453000d003d000600200097fc2f0083
:102cc0000740e1001e00340084827200610260004f
:102cd0008301d1000281d3008180d3000080d30022
:102ce0000804e800f8ff3a00470020006104600093
:102cf00005047400040464000d003200610040000b
:102d0000e080480060014900e081490003b8a50067
:102d1000070032000603e8006538e10004003a00cd
:102d20008301d1000281d3008180d3000080d300d1
:102d3000f87f20000830e100030035000803780028
:102d40006000b8006011b8004433dd00f300b20049
:102d50008301730000000600680447000294be006f
:102d60000094be00fc0447008694be008494be001c
:102d700009007800e502070008007800e302070078
:102d800099007800814f70000b003b000800be00e6
:102d9000be0207004f00b10003003700f3ff270019
:102da000f2ff2f006110b9004f06be004f05be00b4
:102db0004f04be000080fa00000006008103780086
:102dc000be0007000001be006000b8000478a30048
:102dd00013003a006220e10015003e000d003900aa
:102de0008301d1000281d3008180d3008301d1000f
:102df0000281d3008180d3008301d1000281d300fe
:102e00008180d3000538b000c42add00f300b20091
:102e10008381720007f0a70003f0a0000000060005
:102e2000f3ff2700f2ff2f006110b900fbff37000e
:102e300003ff2700f7ff37001400fa00889fbe0049
:102e40008a9fbe008c9fbe000004be000205be002b
:102e5000680047000a90be000890be00ab02070061
:102e60000070a7000bf0a1000bf8a30020003a00af
:102e70009e0990000e099000fe0090006e009000e8
:102e80009e0290003443200084825200c6ff32002c
:102e90000a003c00b4fc2f000428e10014003400b8
:102ea0008301d1000281d3008180d3000080d30050
:102eb0008502e800faff3a00bbff3700b4002000ab
:102ec0000428e10007003c00000040008180480029
:102ed00002014900838149008502e900faff3a00b6
:102ee000b1ff370003002800020020000100370076
:102ef0006011b8006000b800abff37001400fa00a2
:102f0000889fbe008a9fbe008c9fbe000004be004a
:102f10000205be00680047000a90be000890be008f
:102f20007a0207000070a7000bf0a1000bf8a300c5
:102f300016003a009e02900030432000808252002a
:102f4000b0fe2f000028e1000d003c00b0fc2f0077
:102f50000028e1000d0034001e0990008e0890004a
:102f60007e0090000501b0000201d1008180d300f5
:102f70000080d3008502e800fbff3a008aff37009b
:102f8000010028000000200087ff37006000b80023
:102f900085ff3700889fbe00008270000402710028
:102fa000048271002400320036432000c500200056
:102fb0008383cf000a0039000541b1008283cf002e
:102fc000070039000541b1008183cf0004003900ba
:102fd0000541b1008083cf00010039000541b100f7
:102fe00085c353006022b800120032000a003b0083
:102ff00084827200610260008301d1000281d300eb
:103000008180d3000080d3000603e8008743e800f6
:10301000f7ff3a00070037000000400081804800b9
:1030200002014900838149000603e9008743e90062
:10303000f9ff3a001cff07004f04be000000060025
:103040006011b800d3ff37001400fa00889fbe005b
:103050008a9fbe008c9fbe00040678000004be005c
:103060000205be00680047000a90be000890be003e
:10307000260207006200e1000800be000a01be004f
:10308000040020000b003a001e029000e43fb10053
:103090006e009000fe0090000e0990009e099000c6
:1030a000f300b20005fe2300858171000bf0a7003c
:1030b00003f0a000040e78003bff3700c70ade00d3
:1030c000f107b200f50fb20008003200e1cf420074
:1030d000020032000170a00024000500810f700082
:1030e000010032000408050044000500810f700053
:1030f00002003a00140005008502e90000004000cb
:1031000081c04800fcff3b000170a00024000500c6
:103110002800fa00889fbe008a9fbe008c9fbe00d8
:1031200003866b000cff07000028a30064003a0030
:103130000128a30067003a000008a30062003a00db
:103140000108a30065003a001e009000be08900030
:1031500081064000ed3fb100f4805700ee01900081
:10316000111ab8008e099000311bb8009e0990001a
:10317000311cb800511db800f48557004600070007
:10318000fe0190003a0007008b85e8003e00070032
:103190008e09900040000700ee0190003400070007
:1031a0008b85e800380007008e099000400007007a
:1031b0009e0990001b18b800890440000a85480049
:1031c000fe019000340007008b85e80038000700fe
:1031d000ee019000300007008e0990001b18b80027
:1031e000890440000a8548000a98a30008003a00b4
:1031f0000402420085824a0006034b0087834b008d
:1032000008044c0089844c000a054d008d06e90035
:1032100084827200850273004c3add0085027200e0
:103220000100320015002000443ade001400b20014
:103230004538de00cb45dd000b007000c540de00e8
:10324000cb4ddd008b8070004549de00cb55dd00a5
:103250000b017100c551de000d03780092fe0700de
:1032600003f0a1000cf0a70003f0a000cefe370091
:103270001b18b8008502400006834800e0834b001d
:1032800060044c00070037001b18b800060340001c
:1032900087834800faff37001b18b80087034000f7
:1032a00008844800e0844c0060054d0000000600e2
:1032b0001b18b8000804400089844800faff370052
:1032c0000108a300b5fe3a005800be005801be0038
:1032d000e3ff37000008a300b0fe3a0009047800bd
:1032e000f9ff370007f0a20089fd37001400fa004b
:1032f000889fbe008a9fbe008c9fbe000005be0056
:103300000206be00680047000c90be000a90be0096
:103310007e0107006400e1001a00320016003e0042
:103320006100e1001a0032006e049000fe0490007b
:103330000e0b90009e0b90006011b8009e0590004f
:103340000b38b100d5012000828171006101640059
:103350008703d1000683d3008984d3000884d30077
:103360008502e900f8ff3a008f0107000df0a70081
:1033700001f0a0008cfe3700f1ff2700f0ff2f00c6
:1033800089fe370001f8270000002000f7ff370012
:103390006000b800f5ff3700889fbe008a9fbe001e
:1033a0003004be002005be000404440085844c00a7
:1033b00006054d0087854d000898be000a90be00a6
:1033c0000440e10005c8e10006d0e10007d8e100b3
:1033d00002003100680040001008e8004f05be0000
:1033e0004f04be00000006001000fa00889fbe00d7
:1033f0008a9fbe000605be000404be003002be0067
:103400002003be00c4b79f00d5b79f00e6b79f005a
:10341000f7b79f000802520089825a000a035b0036
:103420008b835b0084bf9f0095bf9f00a6bf9f005a
:10343000b7bf9f000498be000698be001100200090
:103440004fb29700dfb297006fb39700ffb39700ba
:103450000820e10009a8e1000ab0e1000bb8e10092
:10346000010039008000eb00108810004f05be00fd
:103470004f04be000080fa00000006001400fa00ad
:10348000889fbe008a9fbe008c9fbe003f00070041
:103490000605be000404be000006eb00ccb79f008a
:1034a000bcb79f00acb79f009cb79f008cb79f0034
:1034b0000d0420004fb39700bfb29700860343006e
:1034c0002fb29700e00f530004003d003d000700bd
:1034d0000f004000b0ff070003003700390007006d
:1034e0000f004000c0ff0700cfb2970095bf9f00bc
:1034f000e08f5200090035002b0007001400200067
:10350000050020006033b800000072008180720066
:1035100002017300838173001c0007000c06e800a1
:103520008d0f5600e3ff3a001fba9700e00f5200dc
:1035300005003d000802be000a03be0000fe2f0089
:103540000f00400094ff07004faa9700e00f5200c1
:1035500008003a000fb497009fb497002fb597006a
:10356000bfb59700d8b79f00e9b79f00fab79f0093
:103570008bbf9f000c0007004f06be004f05be002a
:103580004f04be000080fa000000060001000700a2
:103590000000060090b79f00a1b79f00b2b79f0040
:1035a000c3b79f00000006000100070000000600ee
:1035b0001fb09700afb097003fb19700cfb1970011
:1035c000000006004f2bde0087037300a7b79f00a3
:1035d0004f23de00858242008502730095b79f006d
:1035e000ffaa97004f2bde00040242000402730082
:1035f00084b79f006faa97004f23de0085824200a8
:1036000085027300f5af9f00e9ff07004f18de0049
:103610000402420000027200e4af9f00e4ff0700d2
:103620000000400081804800020149008381490078
:10363000d8ff07000802be000a03be0000fe2f00ec
:1036400000000600881f780018002000881f7800fe
:103650008aff07008f87e9004f047800000006000a
:10366000801feb0085ff07008f87e9000000060040
:10367000889fbe008a9fbe00e00f5000e08f580078
:10368000e00f5900e08f59000c003d006044b80085
:103690006055b8000000540081805c0002015d00ac
:1036a00083815d00180020001500070008003d0020
:1036b000180007000004eb00050037000004eb00d1
:1036c0000f00070002003d00120007001800200054
:1036d000dcff0700e00f5400060032006022b80053
:1036e0006033b8000000520081805a0002015b0084
:1036f00083815b004f05be004f04be000000060042
:10370000e00f5200e08f5a00e00f5b00e08f5b009b
:10371000000006006044b8006055b8000402540080
:1037200085825c0006035d0087835d000000060063
:10373000889fbe008a9fbe008c1f7800e00f50005b
:10374000e08f5800e00f5900e08f59000d003d0058
:103750006044b8006055b8000000540081805c00ef
:1037600002015d0083815d001c0020000820e10053
:1037700009a8e1000ab0e1000bb8e1000d003d002e
:10378000080037000006eb00e00f5200e08f5a00ff
:10379000e00f5b00e08f5b0006003d006044b80076
:1037a0006055b8000402540085825c0006035d0089
:1037b00087835d00aaff0700e00f56000600320075
:1037c0006022b8006033b8000000520081805a00c7
:1037d00002015b0083815b004f0678004f05be004d
:1037e0004f04be0000000600889fbe008a9fbe00f6
:1037f0008c9fbe000404be000605be00809fbe0074
:10380000829fbe002f000700040678000800be005b
:103810000a01be002b000700840678004f03be009b
:103820004f02be008d4f76007fb09700130033002b
:10383000f0ff2f008b8f6b0006003b000d0666002b
:103840000c00a7000a00370007f0a60010002000b7
:103850000a003700880f5200898f5a008a0f5b00d8
:103860008b8f5b00030039001000200001003e0038
:103870000000200007f0a7000000ea004f06be008d
:103880004f05be004f04be0000000600e482400069
:103890001078a30007003200640240001178a300f2
:1038a0003400be001401be00040032000330a70043
:1038b000000006003500be001501be000330a00068
:1038c0000000060005ff27000582610007003200a6
:1038d0000428e10001003200240005000600070072
:1038e00001003a004400050004080500020007003a
:1038f000f9ff3a00140005006f8261008102700038
:1039000085027100850272000000060080007800c8
:103910005002be005003be004439de00f700b20082
:10392000f37f200003016100090032000218e1006a
:1039300016003a00850172008301730083817300d1
:103940000008200015003a00400020001300370056
:1039500085017200830173008381730005003a00c2
:1039600004a8be0006a8be00100020000b0037000f
:103970000201e9000402420085824a0006034b006e
:1039800087834b000748a300f9ff32000740a000df
:1039900004a8be0006a8be002000200080009800f9
:1039a0009200980000000600810020006180550010
:1039b0000b003d000b00200061fe2f000100e10024
:1039c0001d00340082817100610164008904d1000e
:1039d0000884d3000000e800faff3a0071002000dc
:1039e0006100640003007000020060000900320002
:1039f00061044400e0844c000988a5000500320001
:103a00008b05e8006808e10002003a008904d10053
:103a10000884d300f20f20000258e10005003d00a9
:103a2000c75ddd00f907b2008980750008007800e5
:103a3000000006000bf827008b007800000005004e
:020000040000fa
:103a40004f700000656e0000204100004f450000ef
:103a5000207300006f6300006b650000740a0000b3
:103a60000d00000046610000746100006c20000041
:103a70006275000066660000657200002065000047
:103a8000727200006f720000206c0000656e000012
:103a9000203d00002025000075000000415400007a
:103aa000414f000045200000636f00006e6600007b
:103ab000696700002072000065730000706f0000ed
:103ac0006e730000650a00000d0000004154000004
:103ad000414f0000452000006d6100006a6f00004a
:103ae0007220000025750000206d0000696e000046
:103af0006f72000020250000750a00000d00000014
:103b000041540000414f0000452000006572000054
:103b1000726f000072200000636f00006465000097
:103b200020250000780a00000d0000005458000015
:103b3000206300006f6e00006669000067200000cf
:103b40006c6500006e2000002564000020740000f9
:103b500061670000202500006c7800000a0d00005d
:103b600000520000656100006420000074690000dc
:103b70006d6500006f750000742000002d200000ae
:103b80007265000074720000792000002564000056
:103b90000a0d000000000000008000000402000088
:103ba00020000000000000005456000053450000b3
:103bb00052560000455200004d6100007373000032
:103bc00020530000746f0000726100006765000000
:103bd00020200000202000003030000030310000a4
:103be00012010000000200000000000000080000b8
:103bf000d8040000090000000100000001020000dc
:103c00000301000009020000200000000101000083
:103c100000c00000320900000400000000020000a3
:103c200008060000500000000705000081020000a7
:103c300040000000010700000501000002400000f4
:103c40000001000004030000090400003403000028
:103c50004d000000690000006300000072000000d9
:103c60006f000000630000006800000069000000b1
:103c700070000000200000005400000065000000fb
:103c800063000000680000006e0000006f0000008c
:103c90006c0000006f000000670000007900000069
:103ca00020000000490000006e00000063000000da
:103cb0002e0000003a0300004d00000069000000e3
:103cc00063000000720000006f000000630000004d
:103cd0006800000069000000700000002000000083
:103ce0004d00000061000000730000007300000040
:103cf0002000000053000000740000006f0000006e
:103d00007200000061000000670000006500000014
:103d10002000000044000000720000006900000064
:103d200076000000650000001a030000310000006a
:103d300032000000330000003400000035000000b5
:103d40003600000037000000380000003900000095
:103d5000300000003900000039000000029e000021
:103d6000229e0000269e00005a9e0000949e0000a5
:020000040000fa
:103d70000080fb008182fb000002400004824200c0
:103d80004322dd0005c020000502420014f0a1001e
:103d9000e0cf500004003a000000400065812000a0
:103da000843278000300370000004000a581200025
:103db0008432780014e0a1006402420014e0a00004
:103dc000000006004540800084c0b300e78f520029
:103dd0000e003e004440800025a620009542780059
:103de000e0cf520003003a0010c0b30062eab7000f
:103df0000600370025a6200095427800e1cf52004a
:103e000002003a0020c0b30062eab7000480fb0061
:103e10000828b500d5408000844a780045a52000d8
:103e2000255388000608ab0003003200e04f520023
:103e300021003a003d003700e04f52003b003200c5
:103e40008443e900e3c363002540800026538000db
:103e5000355b780026538800254088000442e9003d
:103e600033003a003100370026408000255380009f
:103e7000b65a7800255388002640880026408000e6
:103e8000b65a7800255388002640880026408000d6
:103e9000b65a7800255388002640880026408000c6
:103ea000b65a7800255388002640880064425200a4
:103eb000edff3a001d0037008443e900e3c36300cf
:103ec0002540800026538000355b7800265388000b
:103ed000254088000442e9002f003a001300370013
:103ee0002640800025538000b65a7800255388006c
:103ef0002640880026408000b65a78002553880066
:103f00002640880026408000b65a78002553880055
:103f10002640880026408000b65a78002553880045
:103f20002640880064425200edff3a00000006007f
:103f3000e0cf5300ccff3200e1cf53000e0032003f
:103f4000e2cf530006003200254080002653800057
:103f5000355b780026538800254088000442e9003c
:103f60002540800026538000355b7800265388006a
:103f7000254088000442e900254080002653800047
:103f8000355b780026538800254088000442e9000c
:103f9000b5ff3a00e5ff3700e0cf5300d0ff320015
:103fa000e1cf53000e003200e2cf53000600320092
:103fb0002540800026538000355b7800265388001a
:103fc000254088000442e9002540800026538000f7
:103fd000355b780026538800254088000442e900bc
:103fe0002540800026538000355b780026538800ea
:103ff000254088000442e900b9ff3a00cbff3700b2
:10400000c5a420009542780004c8b30084cf5200b4
:1040100036003a0000ccb30006e8b700f4a4200054
:1040200014427800e24f520009003200e34f520080
:104030001b003200e14f52002b003a0004df290040
:1040400024408800240120004440880027003700d5
:10405000e4a4200014427800e04f52000e003a0021
:10406000e4a42000144278000482fb000402420011
:10407000e5ea2900e5027a00254088002440800016
:104080002440900008e8b7002440800034409000ad
:1040900009e8b700150037000668ef001300370085
:1040a000e4a4200014427800e34f52000c003e00cc
:1040b000e4a42000144278000482fb0004024200c1
:1040c00005eb2900e5027a002540880024408000a5
:1040d000144278000482fb0044408800030037004b
:1040e0000668ef00010037000668ef0000000600d8
:1040f00000c0b30054eab70055eab700c4a42000da
:10410000144278007f026200e10f52000b0032007f
:10411000e20f52000b003200e00f520021003a0083
:1041200006e8a800a480200014427800804f5200c6
:104130001c003200542aa8001a00370006e8a80024
:104140001800370006e8a80004a5200014427800f3
:10415000e04f52000700350004a52000144278000b
:104160006f0262000402420065812000e5027a00cd
:104170000600370004a52000144278006f02620098
:1041800004024200a5812000e5027a0004402800d4
:1041900095026200848f520002003a0010c0b30002
:1041a00054eab70004082000354080000502620090
:1041b000e00f52000500320044a520002440880092
:1041c0000608a80020c0b30008e8b70000000600f9
:1041d000aa24ab0011003200f45280001443900076
:1041e00005c8b300854f53000b003a00d54080004e
:1041f0001543900045c8b300854f530006003a00b0
:10420000c5c0b30015429800f4528000944290005b
:104210000574a00015429800aa24a90004082000f3
:104220005424880000000600881f7800d4408000d5
:10423000140478004e44de00614464001a48aa0069
:1042400064408000e80f52000c003a00e4a4200013
:1042500014427800f407b200b4248800b42480002b
:10426000e00f520003003200040120006440880087
:1042700002003700440020006440880034a620007b
:1042800014427800e14f520022003a0045a5200078
:10429000d440800015029800cafe070024a6200022
:1042a00014427800e24f520008003a0045c0b300c3
:1042b000d440800015429800d44080009442900081
:1042c0000574a0001542980028003700e04f540004
:1042d00008003a0085c4b300d4408000154298001d
:1042e000d4408000944290000574a00015429800cc
:1042f0001e00370085c0b300d440800015429800ee
:10430000d4408000944290000574a00015429800ab
:10431000160037001481200014427800e04f52004c
:1043200011003d0045812000954278008582fb0008
:1043300054812000144278004822dd0005027200fa
:104340000800320045812000954278008582fb00fc
:1043500054812000144278004822dd0005027200da
:104360000400010011e8a900636aef004f0478001f
:10437000000006000b68ef000001eb008000eb007e
:10438000400720005e1607008284a9000401200077
:1043900004248800000006008284a8000401200094
:1043a0005424880010c0b3000be8b7000001eb00f4
:1043b0008000eb00500720005116070000000600a7
:1043c0000200fa00881f7800e4a42000144278005c
:1043d000e14f52000d003a00c4a4200014427800be
:1043e0007f42620009003a0006e8a800d4a4200039
:1043f00014427800e34f520003003a0010c0b300ab
:104400000ae8b700010037000a68ef00e4a42000c2
:1044100014427800e04f5200ad003a00c4a42000de
:10442000144278007f426200e24f5200a8003a0036
:1044300004a52000144278006f426200a4003200fc
:1044400004a52000144278006f026200e10f5200c0
:104450009f003c006540800004022000848f5200d1
:104460009b003a0006e8a80004a52000144278004a
:10447000e04f52000d00350004a5200014427800e2
:104480006f0262000402420065812000e5027a00aa
:10449000e5bf9f0004a52000144278006f0262006f
:1044a000b5a6200065447a000c00370004a5200062
:1044b000144278006f02620004024200a5812000cd
:1044c000e5027a00e5bf9f0004a5200014427800b1
:1044d0006f02620095a6200065447a006142640084
:1044e00004003a004ffa97000424a100c4ff9f0083
:1044f00003003700cffa97000524a000c5ff9f00f6
:1045000004a5200014427800e04f52000800350056
:1045100004a52000144278006f02620004024200e9
:10452000658120006fbb970086327a000700370054
:1045300004a52000144278006f02620004024200c9
:10454000a58120006fb8970080327a00d4a42000a3
:1045500014427800e34f52001d003a006fba9700f2
:104560008002eb00948f120013003d0004a5200090
:1045700014427800e04f52000800350004a52000e6
:10458000144278006f026200b5a6200065437a00ed
:104590000610a00086727a000700370004a52000ec
:1045a000144278006f02620095a6200065437a00ed
:1045b0000610a00086727a006fba9700144390002c
:1045c00045c8b3008542730015429800400037008b
:1045d0004ffb97000624a200c6ff9f00efb897008c
:1045e0000000eb00910f100008003d001142900008
:1045f0000474a1000464a0009440980022002000ec
:1046000050002000be150700030037001142900043
:104610000464a000944098004ffa97000424a2007c
:10462000c4ff9f006244640004003a006fba970020
:104630008002eb00948f12001b003d0004a52000b7
:1046400014427800e04f52000800350004a5200015
:10465000144278006f026200b5a6200065437a001c
:104660000610a10086727a000700370004a520001a
:10467000144278006f02620095a6200065437a001c
:104680000610a10086727a00efb8970011429000e0
:10469000b443b20094409800220020005000200053
:1046a000971507000300370094429000b543b2000d
:1046b0001542980004a52000144278006f026200a1
:1046c00004024200a54a2000050242001414a10081
:1046d0004f0478000080fa0000000600889fbe00aa
:1046e00006e8a8000004eb006825880009c0200047
:1046f0000202200088007800090078009aef070085
:104700009424a8000840780069eab7006beab70073
:104710006aeab7006ceab7005ceab7009424a90023
:1047200068824400d4408800f95288000953880008
:104730004ecabf000ee8b700e480200014427800a3
:10474000e04f520003003a0004012000644088005a
:104750000600370012002000e18020001000200039
:104760006715070004022000644088004f04be0063
:1047700000000600c4a42000144278000446b200e1
:104780003f003a00d4a42000144278000482fb00c9
:1047900005002000eb0f5200e08f5a0038003e0069
:1047a000046001001a0037001b0037003400370096
:1047b00019003700320037000600370009003700c3
:1047c0002b0037000b0037000800370014003700bb
:1047d0001e00370006e8a80084002000644088001e
:1047e0002700370006fe070025003700bbff070043
:1047f00023003700e4802000244088000608a80039
:1048000010c0b30008e8b70006e8a8001c00370095
:1048100037fe07001a003700e9fe070018003700ce
:1048200005a52000954278008582fb00c4a52000e4
:1048300004824200244088000608a80010c0b3008b
:1048400008e8b70006e8a8000d00370006e8a80051
:1048500004a52000144278000482fb00c5a52000b6
:10486000e6a420001643780086727a000400370020
:104870000001eb008000eb00200020002015070065
:10488000000006009ec0a9000082eb00742488008e
:10489000542488000003eb00562588006625880014
:1048a0002400200034258800462588008644a9007d
:1048b000f409200084248800642488008804a80067
:1048c00004c020004822de00c42488006022b80012
:1048d00004608800156088002460880035608800c6
:1048e00044608800556088006460880075608800b6
:1048f0008460880095608800a4608800b5608800a6
:10490000c4608800d5608800e4608800f560880095
:104910009424a800b624880094a4a9009424a90093
:104920005424800068026200860f52000e0032009c
:10493000860020000042eb005624880004407800e6
:1049400006e8b70011e8b7002581200095427800fd
:1049500012e8b700358120009542780013e8b700cf
:104960008a64ab00f4ff3a0010c0b3006eeab700ef
:104970006feab7000042eb000440780002e8b7009d
:1049800000e8b7000be8b7008002eb00b5408800f4
:1049900069eab7006beab700e5408800c5408800c7
:1049a0006aeab7006ceab70086c02000d6408800eb
:1049b000d600200056258800c6a420001660880076
:1049c00080c0b30000ecb70040c0b30001ecb700fa
:1049d00001eca800044078000ee8b70065408800ac
:1049e00000000600889fbe008a1f7800804478007f
:1049f000014478000885fb0068026500030032006e
:104a00008040eb0009407800d9fc07006405650090
:104a10000300320011c0b30009407800d4fc070045
:104a20008984fb0089844400a44a200008f27c00a9
:104a30004f0578004f04be0000000600e0cf500094
:104a4000050032000082fb0004024200a581200024
:104a500065027a00040037000082fb000402420075
:104a60006581200065027a008002eb00850f52000c
:104a70001a00320012029800034a78009442900013
:104a80000544b20015429800944290000534a000fd
:104a900015429800944290000574a00015429800b9
:104aa000e0cf5000070032000080fb000000400013
:104ab000a5812000050040001024a2008402780097
:104ac000060037000080fb000000400065812000e8
:104ad000050040001024a200840278000500780040
:104ae00000000600e04f500015003a0085c0b300fa
:104af00004538000054a780004538000c5a42000b8
:104b000015029800c5c0b3001542980004538000f8
:104b10001443900005c8b300054373001642980083
:104b200046c0b300d440800016429800d4408000b4
:104b3000144390008542730015429800100037001e
:104b40000182fb000080fb000000400000024200e8
:104b50004322dd0006c0200086034200174090007b
:104b600045c8b300054070009043980064024200bd
:104b700006024200144390008542730015429800db
:104b80000000060005022000a42480008482620048
:104b9000e08f5200180032000082fb000402420045
:104ba000a581200004824200140378001601be0093
:104bb000000420000100200002016000030020002a
:104bc000028bbe00140378001601be00001b6900b2
:104bd000019369001424a200140378009643900006
:104be0000744b20017439800140278001443900061
:104bf00080426b0015429800000006000002eb00a6
:104c0000a424880064248800644088000000060012
:104c100064408000e00f520011003a00a424880094
:104c2000642488002500200035258800442588005c
:104c30008644a900f40920008424880064248800a4
:104c40009ec0a8009404ab0003003a009404a8009e
:104c50009404ab00fdff3200140020006440880083
:104c600000000600e4a6200014427800e04f520045
:104c70002e003a0010c0b3006eeab700f4a6200080
:104c800014427800e04f520028003a006feab70063
:104c900034a6200014427800e24f52000a003a0085
:104ca000d4408000004aeb0085c4b300d4408000ab
:104cb00015429800d4408000944290000574a000f2
:104cc000154298001900370034a6200014427800dd
:104cd000e14f520015003a00686aef0084c0b3004b
:104ce000f5528000844a7800f5528000c6a4200066
:104cf0009602980047c0b30097429800f752800090
:104d00001740900005c8b30005407000904398001c
:104d100010c0b30068eab70007538000844b7800e6
:104d20000453800016029800154298000000060007
:104d3000f4528000144378002581200095427800c9
:104d40008582fb0034812000144278004822dd0077
:104d5000050272008682fb00848f52000400360038
:104d60002681200016437800348120001442780008
:104d700025812000954278008582fb003481200047
:104d8000144278004822dd00050272008682fb0092
:104d900005025200258120009542780004407800e9
:104da00012e8b7004822de003581200095427800e5
:104db0000440780013e8b700e04f53004100320090
:104dc0000642e900e1436200f58020009542780048
:104dd0008582fb0004812000144278004822dd0017
:104de0000502720045a5200095427800055a78001a
:104df000f580200095427800044078000fe8b70065
:104e00004822de00058120009542780004407800a9
:104e100010e8b70014c0b300844f53006c003e008c
:104e2000280037000fc8bf000080fb00058120006c
:104e300095427800c82add008483fb0080827200de
:104e400040a52000e0da7b00f7802000974378003f
:104e5000054078000fe8b700c82ade00078120006f
:104e6000974378000540780010e8b7000442e80056
:104e70000fc8bf000080fb0005812000954278002c
:104e8000c82add008483fb008082720040a52000d8
:104e9000e0da7b00f7802000974378000540780037
:104ea0000fe8b700c82ade0007812000974378008a
:104eb0000540780010e8b7000442e800844f530032
:104ec000d8ff3e0025812000954278008582fb00b6
:104ed00034812000144278004822dd00050272006f
:104ee0001800320085c0b30004538000054a7800e2
:104ef0000453800045a520001502980005002400f9
:104f0000f65280009682620007003a0085c4b30022
:104f10001542980004538000944290000574a0004c
:104f2000154298002900370085c0b300154298004b
:104f300004538000944290000574a000154298002c
:104f40002200370085c0b30004538000054a780072
:104f500004538000c5a420001502980045c0b3008a
:104f60001542980004538000944290000574a000fc
:104f70001542980045812000954278008582fb000b
:104f800054812000144278004822dd00050272009e
:104f90000800320045812000954278008582fb00a0
:104fa00054812000144278004822dd00050272007e
:104fb0000400010011e8a9001480200014427800c8
:104fc000e04f520001003a0026ff070000000600f3
:104fd000e0cf530093ff32000fc8bf000080fb00fa
:104fe0000581200095427800c82add008483fb00fb
:104ff0008082720040a52000e0da7b00f78020006c
:1050000097437800054078000fe8b700c82ade0013
:1050100007812000974378000540780010e8b7002a
:105020000442e800844f53007eff3e00a5ff370096
:1050300034a6200014427800e24f520002003a00e9
:105040003bff070013003700636aef0084a62000cf
:1050500014427800e04f52000d003a0085c0b300c2
:1050600004538000054a780004538000c5a4200042
:1050700015029800c5c0b300154298000453800083
:10508000944290000574a00015429800010037007a
:10509000686aef000000060000c0b30002e8b70035
:1050a00000e8b70034a6200014427800e24f520016
:1050b0000d003a0085c0b30004538000054a780013
:1050c0000453800045a520001502980085c4b30054
:1050d0001542980004538000944290000574a0008b
:1050e000154298001c00370024a5200014427800c7
:1050f0000482fb0035a5200095427800c82add0017
:105100008482720044408000848f52000800310085
:1051100025a52000954278008582fb0034a520005b
:10512000144278004822dd000502720044408800e5
:1051300024fb0700d440800045a5200015029800fc
:1051400085c4b30015429800d4408000944290007a
:105150000574a000154298000000060094a4a90060
:10516000040820003040800000026200e00f52007e
:1051700024003a001481200014427800e04f5200cd
:105180000b003d0020c0b30063eab700048020009c
:1051900014427800e04f520001003a00beff0700c1
:1051a00000c0b3006feab7006eeab7003f003700f7
:1051b00085c0b30004538000054a78000453800082
:1051c000c5a4200015029800c5c0b3001542980080
:1051d000045380001443900005c8b30005437300d6
:1051e0001642980046c0b300d44080001642980092
:1051f000d44080001443900085427300154298000b
:105200002a003700c4a4200014427800e04f520066
:1052100010003d0010c0b30063eab70024802000f6
:1052200014427800e04f520001003a009aff070054
:1052300000c0b3006feab7006eeab7001480200028
:1052400014427800804f520018003a0085fe070093
:105250001600370020c0b30063eab70085c0b30072
:1052600004538000054a780004538000c5a4200040
:105270001502980045c0b300154298000453800001
:10528000944290000574a0001542980000c0b3003d
:105290006feab7006eeab70014802000144278006d
:1052a000804f520001003a006efe07000000060029
:1052b000881f780000c0b30062eab70001e8b700b9
:1052c00002e8b70000e8b70068eab70063eab70091
:1052d000d5408000154390000674a10096429800c6
:1052e000a58120001524a200d6408000964390009e
:1052f0000774a100174398001524a20005538000ed
:10530000154390000674a1009642980006e8b70085
:105310000004eb004840880011e8b7002581200018
:105320009542780012e8b700358120009542780058
:1053300013e8b7000ffd0700080178008800780027
:10534000300020006e12070084ff07004f04780031
:1053500000000600d0c2b3006deab70064a62000ca
:1053600014427800b40fb20045003a0066a620004f
:10537000164378000683fb004233de00c232dd00b4
:1053800007c0200007824200f452880004538800be
:105390000424a2000440780060eab700e7827a00a3
:1053a00004c023008482620004402300848f5200e2
:1053b00031003a004233dd000682e80087027800bf
:1053c000e5037a00174078004ceab700e5037a005d
:1053d0000580e80006034000070be800e5037a00bb
:1053e000174078004deab700e5037a00070be800a4
:1053f000e5037a00174078004eeab700e5037a002b
:10540000070be800e5037a00174078004feab70081
:10541000e5037a00070be800e5037a0017407800ff
:1054200050eab700e5037a00070be800e5037a00cd
:105430001740780051eab700e5037a00070be8004f
:10544000e5037a001740780052eab700e5037a00d6
:10545000070be800e5037a001740780053eab7002d
:1054600065027a00040be800c4a42000040b780055
:105470008fff070008003700edfe07000600370029
:1054800064a6200014427800b40fb200e80f520066
:1054900001003a0064fb0700000006006440800041
:1054a000e10f52000a003a0004042000a02480000a
:1054b00000026200e00f520005003a008aa4ef00eb
:1054c0008c04a8008c84a80024002000644088007c
:1054d0008084ab00050032008284ab000300320000
:1054e0000401200004248800a2fb07008824ab00ec
:1054f000020032008ec0a9000b0137008a04ab0005
:10550000080032008c04ab0006003200ddfc07000e
:105510009ec0a800440020006440880014002000c1
:10552000542488008a84ab00050032008c84ab00d0
:105530000300320098fb0700040120005424880077
:105540008a44ab00120032008c44ab0004003200ed
:10555000120020008000eb0030072000e811070057
:105560004400200054248800d4a62000144278006f
:10557000e04f5200010032006d6aed00d4a6200019
:1055800014427800e04f520001003a00b5fd0700d8
:10559000040820005524800005026200e00f52003c
:1055a000060032000408200060248000000262002f
:1055b000e00f52000100320005fb07008a24ab0017
:1055c000090032008c24ab000700320012002000da
:1055d0008000eb00f0ff2700c91107008ea4ef0048
:1055e000240020005424880064408000e30f52000f
:1055f00002003e008ec0a900cb0037008c64ab00d7
:10560000c80032008a64ab00c600320094248000d7
:105610000440780066eab70064a6200014427800cf
:105620000482fb004422de000440780067eab700f1
:10563000840020005424880064a6200014427800ce
:10564000684262000c00320074a620001442780008
:105650000482fb0095a62000e5437a00e1c36300c5
:105660000704a20065437a000604a1000743730003
:1056700086727a000b00370074a62000144278006e
:105680000482fb00b5a62000e5437a00e1c3630075
:105690000704a20065437a000604a10007437300d3
:1056a00086727a0074a6200014427800e04f5200ff
:1056b000050032000001eb0061a620002007200059
:1056c0008f1107000100370022ff07008a64ab003a
:1056d00094003200942480000440780066eab70009
:1056e00064a62000144278000482fb004422de00fd
:1056f0000440780067eab700840020005424880042
:1057000064a6200014427800684262000c00320057
:1057100074a62000144278000482fb0095a62000a5
:10572000e5437a00e1c363000704a20065437a0001
:105730000604a1000743730086727a000b0037004d
:1057400074a62000144278000482fb00b5a6200055
:10575000e5437a00e1c363000704a20065437a00d1
:105760000604a1000743730086727a0074a6200025
:1057700014427800e04f5200050032000001eb00b7
:1057800061a62000200720005d11070001003700fe
:10579000f0fe07008a64ab006200320094248000af
:1057a0000440780066eab70064a62000144278003e
:1057b0000482fb004422de000440780067eab70060
:1057c000840020005424880064a62000144278003d
:1057d000684262000c00320074a620001442780077
:1057e0000482fb0095a62000e5437a00e1c3630034
:1057f0000704a20065437a000604a1000743730072
:1058000086727a000b00370074a6200014427800dc
:105810000482fb00b5a62000e5437a00e1c36300e3
:105820000704a20065437a000604a1000743730041
:1058300086727a0074a6200014427800e04f52006d
:10584000050032000001eb0061a6200020072000c7
:105850002b11070001003700befe07008a64ab0071
:1058600030003200942480000440780066eab700db
:1058700064a62000144278000482fb004422de006b
:105880000440780067eab7008400200054248800b0
:1058900064a6200014427800684262000c003a00be
:1058a00074a62000144278000482fb00b5a62000f4
:1058b000e5437a00e1c363000704a20065437a0070
:1058c0000604a1000743730086727a000b003700bc
:1058d00074a62000144278000482fb0095a62000e4
:1058e000e5437a00e1c363000704a20065437a0040
:1058f0000604a1000743730086727a0074a6200094
:1059000014427800e04f520002003a0091fe070076
:10591000040037000001eb0061a6200020072000f2
:10592000f71007008ec0a900000006002454800074
:10593000355480006103b800860f5200878f5a00eb
:10594000040031004628ef004828ef002456880064
:105950000900370026568000860f500001003100f4
:10596000205688002656800006025200e0825a0027
:10597000344288004542880000000600c4a420008c
:10598000144278007f426200e14f520048003a0022
:1059900004a5200014427800e04f520044003a0071
:1059a000d4a4200014427800e24f420028003200c4
:1059b000e14f42003e003a00e5a420009542780005
:1059c0008582fb00f4a42000144278004822dd0008
:1059d0000502720036003a0025a5200095427800a5
:1059e0008582fb0034a52000144278004822dd00a7
:1059f000050272002e003a000440780076eab700f3
:105a000077eaef0078eab70079eab70010c0b30090
:105a100075eab700c4408000e00f52000300320076
:105a20008002eb00948f12000600350003c4b3001f
:105a3000e28120008040eb0010c0b300fffb0700b4
:105a40008053880000c8b30006e8b700180037008c
:105a5000e5a42000954278008582fb00f4a4200094
:105a6000144278004822dd000502720010003a005e
:105a700025a52000954278008582fb0034a52000f2
:105a8000144278004822dd0005027200e10f520046
:105a900007003a00546aef0044a520002440880023
:105aa000140020004440880010ccb30006e8b70082
:105ab0000000060004c8b300d5a920009542780074
